:020000040800F2
:1000000028060020951C0008A91B0008AB1B00084F
:10001000AD1B0008AF1B0008B11B0008000000006A
:10002000000000000000000000000000B31B0008FA
:10003000B51B000800000000B71B0008B91B000832
:10004000B91C0008BD1C0008C11C0008C51C000824
:10005000C91C0008BD1B0008CD1C0008D11C0008ED
:10006000D51C0008D91C0008DD1C0008E11C000894
:10007000E51C0008E91C0008ED1C0008F11C000844
:10008000F51C0008F91C0008FD1C0008011D0008F3
:10009000051D0008091D00080D1D0008111D0008A0
:1000A000151D0008191D00081D1D0008211D000850
:1000B000251D0008291D00082D1D0008311D000800
:1000C000351D0008391D00083D1D0008411D0008B0
:1000D000451D0008491D0008BF1B00084D1D0008F4
:1000E000511D0008551D0008591D00085D1D000820
:1000F000611D0008651D0008691D00086D1D0008D0
:10010000711D0008751D0008791D00087D1D00087F
:10011000811D0008851D0008C51B0008891D0008F9
:100120008D1D0008911D0008951D0008991D0008EF
:100130009D1D00080000000000000000A11D000837
:10014000A51D0008A91D0008AD1D0008B11D00086F
:10015000B51D0008B91D0008BD1D0008C11D00081F
:10016000C51D0008C91D0008CD1D0008D11D0008CF
:10017000D51D0008D91D0008DD1D00080000000085
:1001800000000000E11D0008000000000000000069
:10019000E51D00080000000000000000E91D000847
:1001A000000000000000000000000000ED1D00083D
:1001B000F11D0008F51D0008F91D0008FD1D0008CF
:1001C000011E000838B5040001D1012032BD00F045
:1001D00022F808B900F023F800F013F800F024F832
:1001E000FFE7416100F001F832BD2068C16841F4C9
:1001F0000051C1600020686020206870A870002055
:100200007047242068702068C16821F40051C160E3
:10021000204600F0DAB904F138056878704700210B
:100220002970204600F0D0BA2068016921F490417D
:1002300001612068416921F02A0170472DE9F843E6
:10024000044604F138070D4678782028164698466B
:100250003CD1002D14BF002E012038D03878012861
:1002600034D001213970212000217960787000F0AC
:10027000EFFAA6848146E68403E0216815F8010BB5
:100280004860E08C28B3E18C481EE0844B46A068AF
:10029000CDF80080B0F5805F0DD100F024F870B982
:1002A00028882168C0F3080048602069002814BF2E
:1002B0006D1CAD1CE5E700F016F80028DDD003202A
:1002C00005E0202078700020387000E00220BDE8B2
:1002D000F283CDF800804B460022402100F005F863
:1002E0000028EED0EBE7002280212046DBE030B58D
:1002F00000F138039C78202C21D109B1140001D1E0
:10030000012030BD1C78012C19D001251D7081629F
:100310008285C285002159602221997000211970BF
:100320000168CA6842F48072CA6001684A6942F092
:1003300001024A610068C16841F0200101E0022029
:1003400030BDC160002030BD416921F040014161F4
:10035000606B704738B5044625682968EA686B69A0
:1003600011F00F0007D188065DD590065BD52046B9
:10037000BDE83240DEE0D80702D412F4907F52D0BC
:10038000C80705D5D00503D5E06B40F00100E06358
:10039000480705D5D80703D5E06B40F00200E063BD
:1003A000880705D5D80703D5E06B40F00400E0636B
:1003B000080705D5D80703D5E06B40F00800E063D7
:1003C000E06B00286ED0890604D5900644BF204615
:1003D00000F0B0F820684069E16B0A0701D44006DC
:1003E0001BD5204600F091F8206841694A060FD5D8
:1003F000FFF7AAFF60B10FF231110165606B00F0E9
:100400002DFA00284ED0606B016DBDE834400847DE
:100410002046BDE8324000F033BA204600F030FA02
:100420000020E06331BD08062CD510062AD594F8CB
:100430003900212836D1A168206AB1F5805F0DD13D
:100440000188C1F308016960206918B9216A881C14
:10045000206207E0206A411C216203E0411C216206
:1004600000786860E08C401EE08480B2D0B92068DB
:10047000C16821F08001C1602068C16841F040017D
:10048000C16031BD48060DD550060BD5E86820F097
:100490004000E860202184F839102046BDE8324051
:1004A00000F0EFB931BD2DE9F041069C05460E463E
:1004B00090461F46286801683140B1420CBF0120B8
:1004C0000020404517D114F1010FF3D024B100F002
:1004D000BFF9C01B8442EDD22868C16821F4D071F5
:1004E00000F00CF805F138002021417081700021E6
:1004F0000170032000E00020BDE8F081C1602868A1
:10050000416949084900416170470168CA6822F49D
:100510009072CA6001684A69520852004A612021FB
:1005200080F83A1070470000806B0021C185C184BB
:1005300000F0A6B980B590F83A10222943D182681C
:10054000B2F5805F14D1826A016941B903685968C4
:10055000C1F308011180826A911C816218E0016870
:100560004B6803F0FF031380816A4A1C82620FE02C
:1005700001690029816A04D14A1C826202685368B9
:1005800005E04A1C82620268536803F07F030B7027
:10059000C18D491EC18589B299B90168CA6822F026
:1005A0002002CA600168CA6822F48072CA600168C9
:1005B0004A69520852004A61202180F83A1000F03E
:1005C000F9FA002002BD022002BD2DE9F0470446E1
:1005D000642521680A69E06822F4405202430A61F6
:1005E0001926CA6848480240A068024320690243AD
:1005F00060690243E0690243CA604A69A06922F463
:10060000407202434A61E3694048414AB3F5004FF2
:100610003BD1914218BF814210D100F022FC074625
:1006200000F01FFC804600F01CFC814600F019FC25
:1006300006FB09F9824600F014FC0FE000F009FC0B
:10064000074600F006FC804600F003FC814600F0FF
:1006500000FC06FB09F9824600F0FBFB61684900DB
:1006600000F058F8DB003233B3FBF5F35B00B2FB6C
:10067000F5F203F4F87300F05BF8ED003235642016
:10068000B5FBF0F000F0070037E0914218BF81425F
:100690000ED100F0E6FB074600F0E3FB804600F0D9
:1006A000E0FB814600F0DDFB824600F0DAFB0DE066
:1006B00000F0CFFB074600F0CCFB804600F0C9FB02
:1006C000814600F0C6FB824600F0C3FB06FB09F939
:1006D0006168890000F01EF81B013233B3FBF5F3AB
:1006E000B2FBF5F203F0F00300F022F82D013235F1
:1006F0006420B5FBF0F000F00F002168C3188B6098
:10070000BDE8F08700000000F369FFFF001401401E
:10071000001001407743B7FBF1F206FB08F7B7FB87
:10072000F1F3B9FBF1F7B7FBF5F705FB17337047AA
:1007300003EB021306FB0AF74643B7FBF1F2B6FBE5
:10074000F1F06421B0FBF1F005FB102570470000CB
:1007500080B50020009000223848416841F4804173
:100760004160416801F480410091009900920021AC
:10077000036843F080530360006800F080500090ED
:100780000098052000F0A0FBBDE80240052000F025
:10079000B8BB00682A49884200D0704780B5002164
:1007A00026480091026842F01002026000220068B0
:1007B00000F0100000900098362000F085FBBDE8A6
:1007C0000240362000F09DBB10B586B0044601A85B
:1007D000142100F0C1FB21681A4A91422CD100205B
:1007E000009000221848016941F40031016101695B
:1007F00001F400310091009900920C21036843F04C
:10080000010303600222006800F0010000900098DC
:100810000191012003900321072004910590029289
:1008200001A90A4800F09CFB00220021262000F0CC
:100830004BFB262000F065FB06B010BD403802409F
:1008400000100040004400403038024000000240E8
:1008500001484068704700BFC401002090F835107F
:10086000022903D08022426501207047052180F8CB
:100870003510006801684908490001600020704790
:10088000704770472DE9FE43DFF8884404F58C7506
:1008900000F052FC00F097F900F0E0F90FF2A040F0
:1008A00004F5AC76D0E90023DFF86C042864592005
:1008B00068640020A86440F2E730E864CDE90023D2
:1008C0000020A86504F58177304600F04FFC002039
:1008D000009001906946304600F06CFDDFF83C6402
:1008E000DFF83C04F0604FF4E130306100207061CB
:1008F000B061F0610C20306200207062B06206F1DD
:100900000C00FFF75FFC0B22314606F10C00FFF7ED
:10091000EEFC0221618104F150020121218180233A
:10092000296ADFF80004A16190600421E18450602D
:100930000121A184506210621064D0636060206065
:100940002062E061E063A063696A61631021A4F83A
:1009500042100121A4F84010A96A11602021D18120
:1009600001219181E96AD1614021518501211185DF
:10097000296B9163012204F194010A808861486126
:100980004863086301206A6B0A6108874FF480722C
:10099000CA8301228A834B80AA6BE86BCA6288648F
:1009A0004FF400724A8712E01CF901201018491C0C
:1009B0005A68521E9142F7DBC0433870642300200E
:1009C00078802322614606F10C00FFF737FC30786F
:1009D000FF2804BF7278FF2A04F5887113D1022022
:1009E0003A79335C401C9A180A283A71F8DBD2B283
:1009F000D2437A717879B27A904204D1B01C0268FD
:100A00000A6042684A60B87B40B100200A5C04EB8F
:100A10008003401C0828C3F83821F7DB012000F0D0
:100A2000E9FC84B0214600F0C1F80FBC00F0F6FCF0
:100A300084B0214600F0BAF80FBC00F019FD286020
:100A400084B000F0B1F80FBC00F0E8FC84B000F016
:100A5000ABF80FBC00F00CFD686084B004F1380105
:100A600000F0A4F80FBC00F0D9FC84B004F1380108
:100A700000F09CF80FBC00F0FBFCA86084B004F10F
:100A8000540100F093F80FBC00F0C8FC84B004F1EE
:100A9000540100F08BF80FBC00F0EAFCE86084B071
:100AA00004F1700100F082F80FBC00F0B7FC84B0D4
:100AB00004F1700100F07AF80FBC00F0D9FC286155
:100AC00084B004F18C0100F071F80FBC00F0A6FCBA
:100AD00084B004F18C0100F069F80FBC00F0C8FC90
:100AE000686184B004F1A80100F060F80FBC00F068
:100AF00095FC84B004F1A80100F058F80FBC00F098
:100B0000B7FCA86184B004F1C40100F04FF80FBC39
:100B100000F084FC84B004F1C40100F047F80FBC7D
:100B200000F0A6FC04F5CC73E8610020D3F800E0E7
:100B3000DFF8F4C10DE004EB8001D1F81821C1F811
:100B4000A021624504DB02EBD2725210C1F8A02151
:100B5000401C7045EFDB04F1E00CFF208CF8000036
:100B60008CF801000020996A16E004EB0008621876
:100B700098F8088102F8E08F091D04EB8008401CFA
:100B8000D8F8A08182F801804FEA28294FEA284846
:100B900082F8029082F803807045E6DB02209862BA
:100BA000022197F9030003E704F11C0168461C22A7
:100BB00000F094BC5949C86C401CC8640B2201F178
:100BC0000C00FFF794BB00B593B006A8342100F0E9
:100BD000C3F901A8142100F0BFF900200090534888
:100BE000016841F0805101600021006800F08050F0
:100BF000009000984E4800910121026842F4404262
:100C000002604FF48032006800F440400090009889
:100C1000069102200C904FF4800108200E900D9157
:100C20000220B42110901190129007920F9106A803
:100C300000F0C9FC00F056FE0F20019002210020B8
:100C4000029103904FF4A0514FF48050049105900D
:100C5000052101A800F078F813B000BD30B587B0C9
:100C60006846142100F078F9002432482D4D05948F
:100C70000168314C41F080010160026802F080029D
:100C80000592002205990592036843F00103036071
:100C9000016801F00101059105990592022103689F
:100CA00043F002030360006800F00200059005981D
:100CB000204600F025FA00220121284600F020FA03
:100CC000012000210090019102912046694600F028
:100CD00047F9022000900121002001910290039029
:100CE0006946204600F03CF90120009001906946D9
:100CF000002002900390284600F032F940F2F630CE
:100D000000210090019102912846694600F028F9DF
:100D100007B030BD0000002000100040D4010020CA
:100D200000440040000402400124F4004038024026
:100D30000070004030380240000002407047000060
:100D400000000000000000002DE9F04104000F4603
:100D500077D0494E306800F00F00B84202D200F060
:100D600072F86ED12068454D810712D5400703D532
:100D7000A86840F4E050A8602178080703D5A86867
:100D800040F46040A860A968A06821F0F001014328
:100D9000A9602078C1074CD56068012802D1296874
:100DA0008A0305E0022818BF032803D129688A01B5
:100DB00003D446E02A68910743D5A968890840EA28
:100DC0008100A860FFF744FD8046A868616800F0D4
:100DD0000C00B0EB810F2CD0FFF73AFDA0EB080020
:100DE00041F289329042F0D3032020E0207841077D
:100DF00005D5A968E06821F4E0510143A960207895
:100E0000010706D5A868216920F4604040EAC100C6
:100E1000A86000F0ABFBAA681949C2F30312895C11
:100E2000184AC8401060002000F098FD0020BDE87E
:100E3000F081306800F00F008742D7D200F003F84D
:100E4000D4D00120F3E73770316801F00F01B942C7
:100E500070470C480C4A006813680C49C3F382229F
:100E600006E00848084A006813680849C3F342329C
:100E7000895CC84070470000003C024000380240D6
:100E8000201B0008D001002008380240B01C0008D8
:100E90000901020081B002D42948815405E02948A3
:100EA00002F00F02104400F8041C01B07047264AFB
:100EB00013684FF6FF0100020B4000F4E060184396
:100EC000224908431060704738B51F4B1C68C4F3B3
:100ED0000223C3F10704052C28BF04241D1D072D80
:100EE00034BF0023DB1E012505FA04F4641E2140F3
:100EF000994005FA03F35B1E1A401143BDE83440E4
:100F0000C6E7002807D4012200F01F01104B8A40D9
:100F1000400943F82020704710B5401EB0F1807F93
:100F200001D3012010BD0B4C60600F214FF0FF304A
:100F3000FFF7AEFF0022A26007202060002010BD56
:100F400000E400E018ED00E00CED00E00000FA0520
:100F500000E100E010E000E0002200F01FBD000012
:100F60002DE9F84F4FF0000E694CDFF8A881DFF84B
:100F7000A8914FF00F0A02460B4601211D6801FAA5
:100F80000EF10D408D4240F0AD805E68022E18BF1C
:100F9000122E4FEA8E0012D14FEADE0602EB860CCB
:100FA00000F01C06DCF820700AFA06FB27EA0B07A3
:100FB000D3F810B00BFA06F63E43CCF820604FEAA7
:100FC0004E0C0326176893F804B006FA0CF6F643A5
:100FD0000BF0030B37400BFA0CFB4BEA07071760CB
:100FE0005F68012F18BF022F03D0112F18BF122FD7
:100FF00012D19768D3F80CB037400BFA0CFB4BEAD0
:1010000007079760576827EA01015F68C7F3001771
:1010100007FA0EF739435160D1680E40996801FA1A
:101020000CF13143D1605968C9005BD500260096A8
:1010300000F00C00D9F8001041F48041C9F800100C
:10104000D9F8006006F4804600960AFA00F6009986
:101050004FEA9E0158F82170B743304EB24208BFA4
:1010600000261DD02E4EB24208BF012618D02D4EAC
:10107000B24208BF022613D02B4EB24208BF03264D
:101080000ED02A4EB24208BF042609D0284EB242E2
:1010900008BF052604D0274EB2420CBF06260726FD
:1010A00006FA00F0384348F82100E84321685E68FA
:1010B0000140F60348BF2943216061685E68014032
:1010C000B60348BF29436160A1685E680140F6022B
:1010D00048BF2943A160E16801405868800248BFC9
:1010E0002943E1600EF1010EBEF10F0F7FF645AF0F
:1010F000BDE8F18F0069084018BF0120C0B27047F9
:1011000081B002B90904FFE7816101B070470000B6
:10111000003C0140083801404438024000000240D1
:101120000004024000080240000C0240001002408F
:10113000001402400018024080B50B48016841F4D9
:1011400000710160026842F480620260016841F44B
:10115000807101600320FFF7AAFE002000F0FEFB73
:10116000FFF7F6FA002002BD003C024038B504004B
:1011700001D1012032BD00F014F818B900F00DF8CB
:10118000FFF707FBFFE702206870211D206800F0D1
:10119000B0F801206870002032BD0021297020467F
:1011A000704704F13C056878704710B50446206824
:1011B00001698A0715D5C1688A0712D56FF0020246
:1011C000026101212177806910F0030F204602D0CF
:1011D00000F0FDFB03E000F0FBFB00F087F80020CF
:1011E0002077206801694A0715D5C1684A0712D5DA
:1011F0006FF00402026102212177806910F4407FC0
:10120000204602D000F0E3FB03E000F0E1FB00F039
:101210006DF800202077206801690A0715D5C1689C
:101220000A0712D56FF00802026104212177C06914
:1012300010F0030F204602D000F0C9FB03E000F0DD
:10124000C7FB00F053F80020207720680169CA0628
:1012500015D5C168CA0612D56FF0100202610821C7
:101260002177C06910F4407F204602D000F0AFFB28
:1012700003E000F0ADFB00F039F800202077206893
:101280000169CA0708D5C168CA0705D56FF0010210
:1012900002612046FFF752FD206801690A0608D561
:1012A000C1680A0605D56FF080020261204600F091
:1012B00090FB206801694A0608D5C1684A0605D531
:1012C0006FF040020261204600F084FB2068016953
:1012D0008A060AD5C1688A0607D56FF02002026126
:1012E0002046BDE8104000F076BB10BD204600F05F
:1012F00073BBF0B5244C0568244B254E254FDFF811
:1013000098C0A04218BFB0F1804F07D0604518BF09
:10131000B84203D0B04218BF98420DD14A6825F0B8
:1013200070051543A04218BFB0F1804F17D060453B
:101330001CBFB842B04212D098421CBF174A90421C
:101340000DD0174A90421CBF164A904207D0164A49
:1013500090421FBF154A9042154A904203D1CA6875
:1013600025F4407515434A6925F08005154305604D
:10137000A0428A68C2620A68826212BF9842096902
:10138000016301214161F0BD000001400004014002
:10139000000C0040000800400004004000400140F4
:1013A000004401400048014000180040001C00407B
:1013B0000020004070B500F13C031A78012A01D1E9
:1013C000022070BD01241C7002225A7004686568F6
:1013D000A6684A68096825F070050D43656026F027
:1013E000800600681643866001215970002018703D
:1013F00070BD000038B50446FFF72AFA14F1010F5A
:10140000054602D0044801786418FFF721FA401B12
:10141000A042FAD331BD00BFC40100200FB430B5E3
:1014200085B0012001900021BDF828400291039170
:10143000009469460898FFF793FDBDF82A00099DBE
:1014400000900021012001910290039128466946F5
:10145000FFF786FD089801222146FFF751FE002282
:1014600021462846FFF74CFE05B030BC5DF814FB62
:101470000FB42DE9F041BDF8227000250E46394623
:101480003046FFF737FE0128F9D0BDF82080182438
:1014900000F01FF839463046FFF72CFE6D0000B112
:1014A0006D1C00F011F8641EF2D104E000F011F898
:1014B00000F00AF8641C0C988442F7DB85F4000005
:1014C000BDE8F0015DF814FB069800224146FFF7E5
:1014D00017BE069801224146FFF712BE103A07D305
:1014E00030B4B1E83810103AA0E83810F9D230BC66
:1014F000530724BFB1E80810A0E8081044BF51F812
:10150000043B40F8043BD20724BF31F8022B20F8FB
:10151000022B44BF0B7803707047121F17D35B0078
:1015200009D151F8043B20F8023B1B0C121F20F894
:10153000023BF6D20BE051F8043B00F8013B1B0ADA
:1015400020F8023B1B0C121F00F8013BF3D238BFFE
:10155000121D521E24BF11F8013B00F8013BF8D8C0
:101560007047000000200860FFF772B92DE958416C
:10157000DFF86443DFF85C63606800F00C00082863
:1015800002D00C2808D00FE000F011F82168C1F358
:101590000141491C490004E000F009F82168C1F349
:1015A0000271B0FBF1F000E03046BDE852812268E4
:1015B00020682068C0F3881802F03F020023A6FBD1
:1015C000080100F00BBA2DE9F8430646DFF8FC529B
:1015D0003078C10746D500F070F904280DD000F02E
:1015E0006CF9082802D16868410206D400F065F958
:1015F0000C280BD16868410208D52968880331D5C9
:101600007068002840F0B380012053E17068B0F5A5
:10161000803F06D0B0F5A02F296807D141F4802182
:101620002960286840F48030286006E021F4803189
:1016300029602A6822F480222A60706868B1FFF766
:1016400007F904462968880300F19180FFF700F943
:10165000001B6528F6D303202CE1FFF7F9F80446B8
:101660002868810340F18380FFF7F2F8001B6528AA
:10167000F6D3F0E7FFF7ECF8001B022840F2AA804F
:10168000E9E7F06870B101213960FFF7E1F804463D
:101690002868810700F1CE80FFF7DAF8001B0228E6
:1016A000F6D9D8E73860FFF7D3F8044628688107F1
:1016B00060D5FFF7CDF8001B0228F7D9CBE7FFF77D
:1016C00052FF0446686F810779D5FFF7C1F8001B08
:1016D0000228F7D9BFE70528286F06D140F004009B
:1016E0002867286F40F0010005E0400840002867A7
:1016F000286F20F00400286741F28938B06868B18B
:10170000FFF7A6F88146286F810700F1A080FFF758
:101710009FF8A0EB09004045F5D39CE7FFF798F848
:101720008146286F810740F19280FFF791F8A0EB86
:1017300009004045F5D38EE7FFF78AF8001B022821
:1017400040F2988087E7FFF783F8001B022840F2F9
:10175000AC8080E700F0B5F804462868810140F1CC
:10176000A880FFF775F8001B0228F6D973E73078D8
:101770005A4F810721D5A86810F00C0F0FD000F048
:101780009CF8082802D16868410208D500F095F855
:101790000C287FF476AF686841023FF572AF296884
:1017A000880703D5F06801287FF42EAF29683069D7
:1017B00021F0F80141EAC0012960317808070DD510
:1017C0007069474900283FF47AAF01220A60FFF7A9
:1017D0003FF80446686F81077FF54CAF31784807C2
:1017E0003AD5286C0024C1000AD400940124286C46
:1017F00040F080502864286C00F0805000900098E1
:10180000DFF8CC80D8F80010C8051BD4D8F8000049
:1018100040F48070C8F80000FFF71AF88146D8F845
:101820000010C8050ED4FFF713F8A0EB090002283A
:10183000F5D910E72868316920F0F80040EAC100C6
:101840002860BAE7B06801287FF445AF49E71CB1CA
:10185000286C20F080502864B06950B3A96801F06A
:101860000C0108293FF4D0AE02287FF473AF00F0DA
:1018700028F80446286881013FF55EAFF169306AB7
:10188000B26A0143706A921ED20341EA8011120CBF
:10189000F06A41EA0241326B41EA006141EA0271B9
:1018A0006960012000F00EF80446286881017FF588
:1018B0004AAF0020BDE8F2830000A86800F00C00E9
:1018C000704700203866FEF7C3BF000000380240B2
:1018D000007000400024F400043802400000474239
:1018E000800E4742F8B500F027F8012100F01EF8FD
:1018F0003160FEF7ADFF07462868C1030CD4FEF740
:10190000A7FFC01BA042F7D30320F2BDFEF7A0FF44
:10191000801BA04205D3F7E701207060FEF798FF17
:10192000064628688103F1D50020F2BD006800F06A
:1019300080500090009870470020009040F2E934F9
:101940000448054E0168024D41F080510160704726
:10195000047000404038024040000E4238B50D4D42
:101960000D4A297804464FF47A70B0FBF1F1106803
:10197000B0FBF1F0FFF7D0FA50B9102C08D20022DA
:1019800021464FF0FF30FFF79FFAAC60002032BDD8
:10199000012032BDC4010020D001002000B500BFED
:1019A000130096469446103928BFA0E80C50FAD888
:1019B0005FEA417C28BF0CC048BF40F8042BC90730
:1019C00028BF20F8022B48BF00F8012B00BD70474C
:1019D0007047704770477047704700001B4213D133
:1019E000094236D12AB18446B0FBF2F002FB10C2A4
:1019F000704700F06BB8FCD30022002370470B0047
:101A00000200002100207047904271EB030CF6D3D6
:101A100070B5B1FA81F4B3FA83F52C1BA340C4F17D
:101A2000200532FA05F63343A2405FF00046E64057
:101A300002E05B085FEA3202841A71EB030524BFFF
:101A4000204629467641F4D302000B0030000021E5
:101A500070BD012ACFD970B5140C20D0B1FA81F431
:101A6000B2FA82F5C4F120046419B4F12006D6D389
:101A7000B2405FF00044F440002502E052085FEA03
:101A80003303C61A71EB020E24BF3046714664411F
:101A90006D41F3D302000B002000290070BD0C46FD
:101AA000B1FBF2F102FB11452D0445EA1045B5FBEF
:101AB000F2F402FB145580B240EA0545B5FBF2F0A2
:101AC00002FB105240EA044070BD00007047000065
:101AD0000E48016841F47001016000220C49086859
:101AE00040F0010008608A600A480A6802400A6003
:101AF000002209484860086820F480200860CA6015
:101B00004FF00060054908607047000088ED00E074
:101B100000380240FFFFF6FE1030002408ED00E020
:101B2000000000000000000001020304060708098D
:101B300019E050F8042BD30744BFA9F101039A1808
:101B4000091F0023042942F8043BF9D25FEA817C93
:101B5000134604D54FF0000CA2F800C09B1CC90727
:101B600044BF0021197050F8041B0029E1D17047CF
:101B700030B5016884684218416802EB5103C90717
:101B80000BD54C4409E012F9011B12F8015B002946
:101B900004F8015B05D5491CF9D19A42F3D10C3008
:101BA00030BD491EF1D5F8E77047FEE7FEE7FEE7D6
:101BB000FEE770477047704700F00CB87047034865
:101BC000FEF7C8BB0248FFF7F0BA0000E0010020B2
:101BD0005801002002484168027889184160704726
:101BE000C401002010B5074979441831064C7C44E3
:101BF000163404E00A68081D114488470146A142D2
:101C0000F8D110BD2C000000480000004EF68851AD
:101C1000CEF20001086840F470000860BFF34F8FF7
:101C2000BFF36F8F4FF00070E1EE100A70470000B5
:101C300001FFFFFF50000000D40100200000000061
:101C400031FFFFFFC00100009000000000000020F5
:101C500000F00BF8002801D0FFF7C4FF0020AFF31D
:101C60000080FEF70FFE00F002F80120704700F040
:101C700001B800000746384600F002F8FBE7000014
:101C800080B5AFF30080024A11001820ABBEFBE71D
:101C9000260002000148804701480047D11A000889
:101CA000A51C0008AFF30080FFF7B0FFFFF7D0FFDF
:101CB0000000000001020304FFF7FEBFFFF7FEBFB4
:101CC000FFF7FEBFFFF7FEBFFFF7FEBFFFF7FEBF48
:101CD000FFF7FEBFFFF7FEBFFFF7FEBFFFF7FEBF38
:101CE000FFF7FEBFFFF7FEBFFFF7FEBFFFF7FEBF28
:101CF000FFF7FEBFFFF7FEBFFFF7FEBFFFF7FEBF18
:101D0000FFF7FEBFFFF7FEBFFFF7FEBFFFF7FEBF07
:101D1000FFF7FEBFFFF7FEBFFFF7FEBFFFF7FEBFF7
:101D2000FFF7FEBFFFF7FEBFFFF7FEBFFFF7FEBFE7
:101D3000FFF7FEBFFFF7FEBFFFF7FEBFFFF7FEBFD7
:101D4000FFF7FEBFFFF7FEBFFFF7FEBFFFF7FEBFC7
:101D5000FFF7FEBFFFF7FEBFFFF7FEBFFFF7FEBFB7
:101D6000FFF7FEBFFFF7FEBFFFF7FEBFFFF7FEBFA7
:101D7000FFF7FEBFFFF7FEBFFFF7FEBFFFF7FEBF97
:101D8000FFF7FEBFFFF7FEBFFFF7FEBFFFF7FEBF87
:101D9000FFF7FEBFFFF7FEBFFFF7FEBFFFF7FEBF77
:101DA000FFF7FEBFFFF7FEBFFFF7FEBFFFF7FEBF67
:101DB000FFF7FEBFFFF7FEBFFFF7FEBFFFF7FEBF57
:101DC000FFF7FEBFFFF7FEBFFFF7FEBFFFF7FEBF47
:101DD000FFF7FEBFFFF7FEBFFFF7FEBFFFF7FEBF37
:101DE000FFF7FEBFFFF7FEBFFFF7FEBFFFF7FEBF27
:101DF000FFF7FEBFFFF7FEBFFFF7FEBFFFF7FEBF17
:101E0000FFF7FEBF81008100F50006010203040513
:101E10000607D8000004FD000020FD000020FD00A2
:101E20000020FD000020FD000020FD000020FD003E
:101E30000020BD000008FD000023DD000002FD00C1
:0C1E40000001F9000010FC000224F40076
:0400000508001CA52E
:00000001FF
